{
    "contractName": "Calculator",
    "abi": [
        {
            "constant": true,
            "inputs": [],
            "name": "getRubsPerOneUsd",
            "outputs": [
                {
                    "internalType": "uint256",
                    "name": "",
                    "type": "uint256"
                }
            ],
            "payable": false,
            "stateMutability": "view",
            "type": "function"
        },
        {
            "constant": true,
            "inputs": [],
            "name": "getConvertedRestOfCents",
            "outputs": [
                {
                    "internalType": "uint256",
                    "name": "",
                    "type": "uint256"
                }
            ],
            "payable": false,
            "stateMutability": "view",
            "type": "function"
        },
        {
            "constant": false,
            "inputs": [
                {
                    "internalType": "address",
                    "name": "oracleAddress",
                    "type": "address"
                }
            ],
            "name": "askRateFromOracle",
            "outputs": [],
            "payable": false,
            "stateMutability": "nonpayable",
            "type": "function"
        },
        {
            "constant": true,
            "inputs": [],
            "name": "getId",
            "outputs": [
                {
                    "internalType": "uint256",
                    "name": "",
                    "type": "uint256"
                }
            ],
            "payable": false,
            "stateMutability": "view",
            "type": "function"
        },
        {
            "constant": true,
            "inputs": [],
            "name": "getConvertedUsd",
            "outputs": [
                {
                    "internalType": "uint256",
                    "name": "",
                    "type": "uint256"
                }
            ],
            "payable": false,
            "stateMutability": "view",
            "type": "function"
        },
        {
            "constant": false,
            "inputs": [],
            "name": "convert",
            "outputs": [],
            "payable": true,
            "stateMutability": "payable",
            "type": "function"
        },
        {
            "constant": false,
            "inputs": [
                {
                    "internalType": "uint256",
                    "name": "_rubs",
                    "type": "uint256"
                },
                {
                    "internalType": "uint256",
                    "name": "_kops",
                    "type": "uint256"
                },
                {
                    "internalType": "uint256",
                    "name": "_k",
                    "type": "uint256"
                }
            ],
            "name": "reqToConvertSumma",
            "outputs": [],
            "payable": false,
            "stateMutability": "nonpayable",
            "type": "function"
        },
        {
            "constant": false,
            "inputs": [
                {
                    "internalType": "uint256",
                    "name": "_id",
                    "type": "uint256"
                }
            ],
            "name": "setId",
            "outputs": [],
            "payable": false,
            "stateMutability": "nonpayable",
            "type": "function"
        },
        {
            "constant": true,
            "inputs": [],
            "name": "getRestKopsPerOneUsd",
            "outputs": [
                {
                    "internalType": "uint256",
                    "name": "",
                    "type": "uint256"
                }
            ],
            "payable": false,
            "stateMutability": "view",
            "type": "function"
        },
        {
            "constant": true,
            "inputs": [],
            "name": "getRubs",
            "outputs": [
                {
                    "internalType": "uint256",
                    "name": "",
                    "type": "uint256"
                }
            ],
            "payable": false,
            "stateMutability": "view",
            "type": "function"
        },
        {
            "constant": true,
            "inputs": [],
            "name": "getKops",
            "outputs": [
                {
                    "internalType": "uint256",
                    "name": "",
                    "type": "uint256"
                }
            ],
            "payable": false,
            "stateMutability": "view",
            "type": "function"
        },
        {
            "anonymous": false,
            "inputs": [
                {
                    "indexed": false,
                    "internalType": "uint256",
                    "name": "_usd",
                    "type": "uint256"
                },
                {
                    "indexed": false,
                    "internalType": "uint256",
                    "name": "_cent",
                    "type": "uint256"
                }
            ],
            "name": "EventOfResult",
            "type": "event"
        }
    ],
    "bytecode": "608060405234801561001057600080fd5b5061041f806100206000396000f3fe60806040526004361061009c5760003560e01c806391bbdcc71161006457806391bbdcc71461013c578063aa90997b14610144578063d0e0ba951461017a578063ea28c31e146101a4578063f0bbb598146101b9578063fc7ce492146101ce5761009c565b8063251f8e5a146100a15780632cc3a6f6146100c8578063521f9934146100dd5780635d1ca6311461011257806362cc9b5914610127575b600080fd5b3480156100ad57600080fd5b506100b66101e3565b60408051918252519081900360200190f35b3480156100d457600080fd5b506100b66101e9565b3480156100e957600080fd5b506101106004803603602081101561010057600080fd5b50356001600160a01b03166101ef565b005b34801561011e57600080fd5b506100b661032e565b34801561013357600080fd5b506100b6610334565b61011061033a565b34801561015057600080fd5b506101106004803603606081101561016757600080fd5b50803590602081013590604001356103c5565b34801561018657600080fd5b506101106004803603602081101561019d57600080fd5b50356103d3565b3480156101b057600080fd5b506100b66103d8565b3480156101c557600080fd5b506100b66103de565b3480156101da57600080fd5b506100b66103e4565b60005490565b60035490565b6000819050806001600160a01b031663251f8e5a6040518163ffffffff1660e01b815260040160206040518083038186803b15801561022d57600080fd5b505afa158015610241573d6000803e3d6000fd5b505050506040513d602081101561025757600080fd5b505160005560408051637514618f60e11b815290516001600160a01b0383169163ea28c31e916004808301926020929190829003018186803b15801561029c57600080fd5b505afa1580156102b0573d6000803e3d6000fd5b505050506040513d60208110156102c657600080fd5b505160015560408051630c53468f60e41b815230600482015290516001600160a01b0383169163c53468f091602480830192600092919082900301818387803b15801561031257600080fd5b505af1158015610326573d6000803e3d6000fd5b505050505050565b60075490565b60025490565b6005546006546004546001546000549183029093019291020180828161035c57fe5b04600255600081838161036b57fe5b0690508181600654028161037b57fe5b04600381905560025460408051918252602082019290925281517f02d72fe7407400effbf796922c83b93114531ad5fad7b845fbee1005a2ce6200929181900390910190a1505050565b600492909255600555600655565b600755565b60015490565b60045490565b6005549056fea265627a7a723158206931a668a19af9d71b16bd28a495cb275723ce8af4a3102c3a21d031c6aa0ceb64736f6c634300050b0032",
    "sourcePath": "/home/sergorl/csharp/project_asp/aspnetcoreapp/Converter.sol",
    "compiler": {
        "name": "solc",
        "version": "0.5.11+commit.c082d0b4"
    },
    "functionHashes": {
        "askRateFromOracle(address)": "521f9934",
        "convert()": "91bbdcc7",
        "getConvertedRestOfCents()": "2cc3a6f6",
        "getConvertedUsd()": "62cc9b59",
        "getId()": "5d1ca631",
        "getKops()": "fc7ce492",
        "getRestKopsPerOneUsd()": "ea28c31e",
        "getRubs()": "f0bbb598",
        "getRubsPerOneUsd()": "251f8e5a",
        "reqToConvertSumma(uint256,uint256,uint256)": "aa90997b",
        "setId(uint256)": "d0e0ba95"
    },
    "gasEstimates": {
        "creation": {
            "codeDepositCost": "211000",
            "executionCost": "251",
            "totalCost": "211251"
        },
        "external": {
            "askRateFromOracle(address)": "infinite",
            "convert()": "43036",
            "getConvertedRestOfCents()": "421",
            "getConvertedUsd()": "487",
            "getId()": "465",
            "getKops()": "508",
            "getRestKopsPerOneUsd()": "464",
            "getRubs()": "486",
            "getRubsPerOneUsd()": "399",
            "reqToConvertSumma(uint256,uint256,uint256)": "60256",
            "setId(uint256)": "20233"
        }
    }
}